:020000040800F2
:10000000E8070020A9010008A9350008852B000891
:10001000A5350008BD1900080F50000800000000B9
:100020000000000000000000000000003B3E00084F
:10003000511C000800000000253C0008CD420008CB
:10004000C3010008C3010008C3010008C301000880
:10005000C3010008C3010008C3010008C301000870
:10006000C3010008C3010008C3010008C301000860
:10007000C3010008C3010008C3010008C301000850
:10008000C3010008C3010008C3010008C301000840
:10009000C3010008C3010008C3010008C301000830
:1000A000C3010008C3010008C3010008C301000820
:1000B0006D4A00086D4B0008C3010008C301000829
:1000C000C3010008C3010008C3010008C301000800
:1000D000C3010008ED4D0008C3010008C30100087A
:1000E000C3010008C3010008C301000800F002F8C2
:1000F00000F04AF80AA090E8000C82448344AAF178
:100100000107DA4501D100F03FF8AFF2090EBAE875
:100110000F0013F0010F18BFFB1A43F0010318473B
:1001200080960000A0960000103A24BF78C878C1DD
:10013000FAD8520724BF30C830C144BF04680C60ED
:10014000704700000023002400250026103A28BF35
:1001500078C1FBD8520728BF30C148BF0B60704739
:10016000662906F02A83642900F07C80002070470D
:100170001FB500F017FC04000020002105F092FBE1
:10018000E0601FBD10B510BD00F00CFD1146FFF77B
:10019000EFFF05F0EBF900F02AFD03B4FFF7F2FFE3
:1001A00003BC04F093FF000009488047094800475A
:1001B000FEE7FEE7FEE7FEE7FEE7FEE7FEE7FEE717
:1001C000FEE7FEE704480549054A064B7047000074
:1001D0000D4A0008ED000008E8010020E8070020B3
:1001E000E8030020E8030020704700000FB41CB5AE
:1001F000074B06AA7B4469460090059800F0B9FBBE
:100200000020694600F0C8FB1CBC5DF814FB000030
:10021000A107000070B5044685690068C10601D5D4
:10022000302600E02026C00707D070BDD4E90121A8
:1002300030469047206A401C20626D1EF6D570BD86
:1002400070B5044685690078C00707D170BDD4E950
:10025000012120209047206A401C20626D1EF6D5A7
:1002600070BD00002DE9F041064600241068752994
:10027000314616A510D0AFF30080002802DA4042C4
:1002800013A507E031688A0701D512A502E04907E6
:1002900004D511A5012401E0AFF3008000210A225A
:1002A00006F1240709E0B0FBF2FCB0FBF2F302FB1D
:1002B0001C00303078541846491C0028F3D12346DE
:1002C0002A463046BDE8F04100F0E5B800000000E5
:1002D0002D0000002B000000200000002DE9F04759
:1002E0004FF0000A89460446C0F820A02046E16885
:1002F0008847002876D0252806D0D4E901219047E8
:10030000206A401C2062F1E7E1682046002588470A
:10031000C4F81CA006460027C4F818A02A2E09D04D
:10032000304604F0CCFE38B304EB8708303EC8F802
:10033000186019E059F8041B204604EB870291610C
:10034000E1688847012F064618D1E069002820DAC5
:1003500025F020051DE0D8F8180000EB800006EB22
:1003600040003038C8F818002046E1688847064643
:1003700004F0A5FE0028EED1012F0AD02E2E08D1C0
:100380002046E16888477F1C0646022F45F020057D
:10039000C4DBA069002803DA404245F00105A061F2
:1003A000E80701D025F01005B6B1A6F141001928E3
:1003B00002D8203645F400654A463146204625607D
:1003C0004D46FFF7CDFE58B1012806D0ED1D25F0B2
:1003D000070000F1080989E704E005F1040985E751
:1003E00030468AE7206ABDE8F08710B5431C02E07A
:1003F00010F8011B71B18107FAD14FF0013202C828
:100400008C1A8C4314EAC211F9D0C01A0A0603D020
:10041000C01E10BDC01A10BD0A0401D0801E10BD40
:100420000902FCD0401E10BD421E12F8013F002BF5
:10043000FBD111F8013B002B02F8013BF9D17047C9
:100440004FF0000200B5134694469646203922BF6D
:10045000A0E80C50A0E80C50B1F12001BFF4F7AFB8
:10046000090728BFA0E80C5048BF0CC05DF804EB9A
:10047000890028BF40F8042B08BF704748BF20F808
:10048000022B11F0804F18BF00F8012B7047704706
:100490007047704770472DE9F0470D4699469246E0
:1004A000044600F124080168880604D5E06921F0BB
:1004B0001001216000E00120A84201DD471B00E09F
:1004C0000027A1697A1902EB0900081AA0612078B7
:1004D000C00602D42046FFF79DFE002608E0D4E9BE
:1004E00001211AF806009047206A401C761C206201
:1004F0004E45F4DB2078C0060AD52046FFF78AFE79
:1005000006E0D4E9012130209047206A401C206297
:10051000381EA7F10107F4DC07E0D4E9012118F83F
:1005200005009047206A401C2062281EA5F10105A5
:10053000F3DC2046FFF784FE2078000602D5022077
:10054000BDE8F0870120FBE770472DE9FF4F0C461F
:100550001E464FF0FF378BB0D2E90001DDF8608016
:100560000A908A46C1F30A5505B93D46002108465E
:100570004FF00000BAF1000F00F4400005DA00EB84
:1005800080004FF4400101EA50004FEA9059B9F160
:10059000010F00DDB9460A9850EA4A000ED044F631
:1005A0001050A5F2FF3545432F14B8F1000F1ED0AF
:1005B0007542291E1EDDC9F100021CE0B8F1010FD1
:1005C0004FF0000001D0302103E0F24305E0215458
:1005D000401CB042FBDB30460022002121540B9925
:1005E000C1F80880C1E900200FB0BDE8F08FBD1B45
:1005F0006D1CDEE74A4600DA694206A800F05CFAA4
:1006000006AB93E8070003AB83E8070050460A995E
:1006100000F036FB8DE80700A0F500501F38009071
:100620000398002D0ADD42F21F014A4608440023C8
:1006300003A90390684600F09FFD09E0A0F5005073
:100640004A461F38002303A90390684600F0A9FD1D
:100650008DE807000004000C03D04FF0FF30410884
:1006600000E01046B8F1000F03D0002200921546BA
:100670001EE0751E05D400F099F9303262556D1EEA
:10068000F9D5B3460122084302D000227F1C04E0C2
:100690002078302801D100227F1E002A099784D0BB
:1006A0001DE0112D07DA00F081F9303262556D1C22
:1006B00050EA0102F5D1084302D00098C8B10EE01B
:1006C0000021681E05E0235C625C63542254401ED6
:1006D000491C8142F7DBAB46A81B401E0990002055
:1006E00004F80B000B98099AC0F80880C0E9002BA9
:1006F0007AE711264FF0000857E72DE9F04F8846BA
:100700000446D21D22F0070191B0D1E90001CDE9E4
:100710000A0104F07EFC02460B98C00F01D02D2088
:1007200007E02068810701D52B2002E0202101EAA3
:10073000C000032A099001D0072A05DB0346414681
:10074000204600F079F90BE12078800601D5E069B8
:1007500000E00620B8F1650F814606D0B8F1660FBB
:1007600018D0B8F1670F70D131E00020B9F1110F46
:10077000009001DB112301E009F101030AAA01A99C
:100780000CA8FFF7E2FEDDE90C70002609F1010577
:10079000834647E001204B4600904FF000470AAAED
:1007A00001A90CA8FFF7D1FEDDE90DB00C995D465B
:1007B000002610B909F101000D18B9EB050003D4AA
:1007C000C0F1FF3609F10105A5EB09002BE0B9F1F5
:1007D000010F01DA4FF001090020B9F1110F00906B
:1007E000484601DD112300E003460AAA01A90CA82E
:1007F000FFF7ABFEDDE90C704D46002683462078FE
:1008000000070AD4AB4500DA5D4601A8012D04DDDE
:10081000411911F8011C302907D04F4502DA17F1B0
:10082000040F04DA012082460FE06D1EEEE7002F70
:1008300002DCED1B3E4403E0781CA84200DD7D1C79
:10084000B81B00F1010A4FF000472078000703D4DD
:10085000AA4501DB4FF0FF3A0021B7F1004F0DF13F
:1008600043088DF8431024D002202B23002F01DAF7
:100870007F422D230A21021EA0F1010000DC5FB19E
:1008800097FBF1FC97FBF1F201FB1C7C17460CF186
:10089000300C08F801CDEEE7A8F1010003702188C3
:1008A000090501D5452100E06521A0F1010800F806
:1008B000011C09980FA9A1EB0807FF1D00B1012039
:1008C000411901EBEA70A1693844081A401EA06181
:1008D0002078C00602D42046FFF79CFC099828B176
:1008E000D4E901219047206A401C20622078C0068C
:1008F00022D52046FFF78EFC1EE0002E04DBB34518
:1009000002DD01A8805D00E03020D4E9012190479C
:10091000206A401C2062761CAAF101005FEA000AEE
:100920000AD100F03FF8C0680168405CD4E90121B9
:100930009047206A401C2062281EA5F10105DCDCDE
:1009400007E0D4E9012118F8010B9047206A401C08
:100950002062381EA7F10107F3DC2046FFF770FC88
:10096000032011B041E6000001694A1C02610878C9
:10097000704700B58FB0CDE90131002105910549DF
:100980007944CDE9031011466846FFF7A7FC0FB084
:1009900000BD0000E5FFFFFF0A6802F8010B0A60D6
:1009A0007047000000487047A801002030B5B0F142
:1009B0000A024FEA900E71F100034EEA817EB0EB1D
:1009C0000E0061EB91014FEA101E4EEA017E10EB22
:1009D0000E0041EB11114FEA102E4EEA016E10EBA2
:1009E0000E0041EB11214FEA104E4EEA014E10EB82
:1009F0000E0041EB1141401841F100014FEAD000D7
:100A000040EA41704FEAD10110EB80054FEA8104C2
:100A100044EA907444EB01046D1944EB0404521B46
:100A2000A3414FF0000348BF0A3200D530BD401C3F
:100A300041F1000130BD00002DE9F0411F460446A0
:100A400003260168072A01F4006004DB08B116A53B
:100A500005E016A503E008B115A500E015A521F0F5
:100A600010002060A069C01EA0610FB1401EA061EF
:100A70002046FFF7CFFB4FB1D4E90121384690471C
:100A8000206A401C2062C01C206206E0206AFAE74F
:100A9000D4E9012115F8010B9047761EF8D22046C3
:100AA000FFF7CEFBBDE8F0814E414E006E616E0057
:100AB000494E4600696E66002DE9F04781461646AC
:100AC0008AB0354878440DC88DE80D003248784426
:100AD000801C03AC0DC884E80D0041F69B3008442F
:100AE000372190FBF1F290FBF1F5A5F1800501FBB8
:100AF00012041B3C02D56442012000E00020DFF814
:100B000098A080460027FA44AAF1BE0A0EE0E0074A
:100B10000AD03246684607EB470101230AEB810100
:100B200000F03FFB8DE8070064107F1C002CEED125
:100B3000194F7F44AE3F19E0E80715D007EB0410CA
:100B40000DF1180A90E80E008AE80E00C068F04225
:100B500001D1981908903246012306A903A800F094
:100B600020FB03AB83E807006D10641C002DE3D16C
:100B70004FF0010332466946B8F1000F03A802D0D6
:100B800000F0FAFA01E000F00CFBC9E90001C9F835
:100B900008200AB0BDE8F087C08C0000004870470C
:100BA000880100207546FFF7F9FFAE46050069464B
:100BB000534620F00700854618B020B5FFF702FB2A
:100BC000BDE820404FF000064FF000074FF000084E
:100BD0004FF0000B21F00701AC46ACE8C009ACE8CF
:100BE000C009ACE8C009ACE8C0098D46704710B533
:100BF0000446AFF300802046BDE81040FFF7CDBAB1
:100C00004FF0013C50F8042B51F8043B9A4221D19B
:100C1000A2EB0C03934313EACC1317D150F8042B27
:100C200051F8043B9A4215D1A2EB0C03934313EA0B
:100C3000CC130BD150F8042B51F8043B9A4209D144
:100C4000A2EB0C03934313EACC13DBD04FF000006C
:100C5000704700BFD01A01BAB1FA81F101F0180152
:100C600022FA01F0CB40C1F12001DBB2C0B2C01AC0
:100C70002CFA01F3D11A914311EAC311E6D170475E
:100C80005FEA400C08BF91F0000F4FEA8C234FEA57
:100C9000C12243EA51514FEA1C5018BF00F5F04001
:100CA0004FEA300018BF41F000415FEA6C5C00F091
:100CB0002980BCF1FF3F08BF40F080407047130C13
:100CC00006BF12044FF0100C4FF0000C130E04BFBF
:100CD00012020CF1080C130F04BF12010CF1040CEA
:100CE000930F04BF92000CF1020CD30F04BF52000B
:100CF0000CF1010C11464FF00002A0F11F00A0EB17
:100D00000C00704711F0004F08BF704731F00041F0
:100D10003FF4D5AF0B0C06BF09044FF0100C4FF099
:100D2000000C0B0E04BF09020CF1080C0B0F04BFE2
:100D300009010CF1040C8B0F04BF89000CF1020CAB
:100D4000CB0F04BF49000CF1010CCCF12003A0EB48
:100D50000C0022FA03F302FA0CF241EA030100F15B
:100D60000100704720F07F4C80EA030023F07F47AA
:100D7000ACEB070303F57C5300F0004003F1FF03E5
:100D80002DE980494FEA154B09B44FEA144325EA8F
:100D90000B4E24EA03480FF2042606EB13274908FA
:100DA0003E785FEA320203FB0667C7F5000707FBE0
:100DB00006F64FEA54374FEAD64606F1020607FB1D
:100DC000066CCCF1005C4FEA1C472CEA074C07FB91
:100DD00006F40CFB06F504EB15464FEA961634BFF5
:100DE00000204FF000404FEAD13706FB07FC4FEAE6
:100DF0001C4C0CFB0BF7D21B03FB0CF761EB070140
:100E00000CFB0EF7B0EB074072EB17420CFB08F738
:100E100034BFA2EB0742B2EB074261EB17414FEA46
:100E20000C444FEA910706FB07FC4FEA1C4C0CFBF5
:100E30000BF7B0EBC74072EB573203FB0CF734BF34
:100E4000A2EBC742B2EBC74261EB57310CFB0EF786
:100E5000B0EBC70072EB57720CFB08F734BFA2EB84
:100E6000C702B2EBC70261EB5771039F4FEA816182
:100E700041EA921104EBCC044FEAD1374FEA826287
:100E800006FB07FC42EA90124FEA80604FEA1C4CD6
:100E90000CFB0BF7D21B03FB0CF761EB07010CFB00
:100EA0000EF7B0EB074072EB17420CFB08F734BFAC
:100EB000A2EB0742B2EB074261EB17414FEA8C55B8
:100EC0004FEA910704EB9C2406FB07FC4FEA1C4CFD
:100ED0000CFB0BF7B0EBC74072EB573203FB0CF780
:100EE00034BFA2EBC742B2EBC74261EB57310CFBF8
:100EF0000EF7B0EBC70072EB57720CFB08F734BF6C
:100F0000A2EBC702B2EBC70261EB577115EB4C25A0
:100F10004FEA816141EA92114FEA82624FEAD1378A
:100F200042EA901206FB07FC44F100044FEA80609D
:100F30004FEA1C4C0CFB0BF7D21B03FB0CF761EBCD
:100F400007010CFB0EF7B0EB074072EB17420CFBEE
:100F500008F734BFA2EB0742B2EB074261EB17413F
:100F600015EB1C154FEA813141EA92414FEA82327A
:100F700042EA90424FEA80304FEA0C7644F1000496
:100F800048EA03434EEA0B484FF0000EB2EB080C60
:100F900071EB030724BF624639464EEB0E0E4FF04D
:100FA000000B0018524149414BEB0B0BB2EB080C04
:100FB00071EB03077BF1000B24BF624639464EEB11
:100FC0000E0E4FF0000B0018524149414BEB0B0B3A
:100FD000B2EB080C71EB03077BF1000B24BF6246F8
:100FE00039464EEB0E0E51EA020718BF46F00106D5
:100FF00016EB0E7655F1000254F1000103D5BDE861
:101000008901BDE80088BDE88901BDE80048B6193E
:10101000524141EB0101A3F10103704780807F7EC3
:101020007D7C7B7A7978777676757473727171705E
:101030006F6E6E6D6C6C6B6A6A6968686766666510
:101040006464636362616160605F5F5E5E5D5D5C9E
:101050005C5B5B5A5A59595858575756565555550F
:101060005454535352525251515050504F4F4F4E6F
:101070004E4D4D4D4C4C4C4B4B4B4A4A4A494949BD
:1010800048484847474747464646454545444444FF
:10109000444343434342424242414141002B9C4628
:1010A00030D477002BD01CB54FEA370703B44FF08C
:1010B00010004FF01001BAF1000F06D0BCF1000F84
:1010C000DCBF40F0080040F008014FF000000FBC0A
:1010D000BDE810400BF1010BBBF1010F08BF5FEA47
:1010E000170722BF12F1010211F101014FF0004177
:1010F00043F1000300F0004043EA00007047F9D3D9
:101100005708D0E746EA064613F1400F4FEA164665
:101110001FDD13F1200FDFBF16430A4600212033E5
:101120005B42BED0C3F1200746EA064602FA07F743
:101130004FEA164646EA0706C3F1200722FA03F2F1
:1011400001FA07F721FA03F14FF0000342EA070220
:10115000A7E746EA020646EA06464FEA164646EA88
:101160000106BCBF46EA0646360C4FF000034FF0BE
:1011700000024FF0000194E72DE9804C9A46934617
:1011800070B491E8380007C831EA400C48BF34EA2F
:10119000430C03D5FFF7E6FDFFF780FFF0BCBDE889
:1011A000008C2DE9804C9A46934670B491E8380043
:1011B00007C810F0804F08BF13F0804F03D100F034
:1011C00005F8FFF76BFFF0BCBDE8008C20F07F470F
:1011D00080EA030023F07F4C07EB0C03A3F57C535C
:1011E00000F00040A3F1FE0392F0000F00F0B38086
:1011F00095F0000F00F077802DE901494FEA11408A
:101200004FEA144621EA004800FB06FC24EA0647A0
:1012100008FB06F607FB08F800FB07F718EB064883
:101220004CEB164C4FEA124B18EB07484FEA1546A9
:101230004CEB174022EA0B4E0BFB06FC25EA064757
:101240000EFB06F607FB0EFE0BFB07F71EEB064E2A
:101250004CEB164C4FF000061EEB074E4CEB174BB9
:1012600018EB0B0840F1000018EB0E0B58EB0008D0
:1012700040F100008F1A4FF000013CBFC943661BCC
:1012800014BFB5EB040C00213CBFC943F61B4FEA69
:1012900017444EEA8E0E27EA04454FEA1C4704FB2A
:1012A00007622CEA074C05FB07F70CFB05F604FB6D
:1012B0000CFC16EB074642EB174216EB0C4642EBD2
:1012C0001C421BEB060658EB0202414146EA9E0611
:1012D00001D5BDE80189B619524141EB0101A3F1E5
:1012E0000103BDE801894FEA14454FEA114724EA9A
:1012F000054621EA074C05FB07F406FB07F70CFB44
:1013000006F105FB0CFC11EB074144EB17444FEAD7
:10131000124711EB0C4144EB1C4422EA074C05FB3D
:1013200007F206FB07F70CFB06F605FB0CFC16EBB9
:10133000074642EB174216EB0C4642EB1C456A1877
:1013400054F1000148BF7047B619524141EB010109
:10135000A3F10103704795F0000F37D04FEA114217
:101360004FEA144721EA024624EA074C02FB07F140
:1013700006FB07F70CFB06F402FB0CFC14EB07441E
:1013800041EB17414FEA154714EB0C4441EB1C416C
:1013900025EA074C02FB07F506FB07F70CFB06F6F0
:1013A00002FB0CFC16EB074645EB174516EB0C460B
:1013B00045EB1C42121951F1000148BF7047B619A4
:1013C000524141EB0101A3F1010370474FEA14457B
:1013D0004FEA114724EA054621EA074C05FB07F1CD
:1013E00006FB07F70CFB06F24FF0000605FB0CFCB2
:1013F00012EB074241EB174112EB0C4251EB1C413F
:1014000048BF7047921841EB0101A3F101037047F7
:1014100021B1826842F00102826003E0826822F01A
:10142000010282607047000010B5044612488442F1
:1014300008D10121401502F023FC0021601502F0C3
:101440001FFC17E00D48844208D10121001502F06D
:1014500017FC0021201502F013FC0BE00848844221
:1014600008D10121C80302F00BFC00214FF4004019
:1014700002F006FC10BD00000024014000280140DD
:10148000003C0140014600208A6802F004020AB1D3
:10149000012000E0002070470146C86C80B2704710
:1014A0000246002013680B400BB1012000E0002031
:1014B0007047014600208A6802F008020AB1012044
:1014C00000E000207047000030B5024600200023F5
:1014D00050680F4C20400D790C6844EA05242043E5
:1014E000506090680B4C2040D1E902542C434D7958
:1014F00044EA450420439060D06A20F470000C7CDC
:10150000641EE4B2234340EA0350D06230BD0000C1
:10151000FFFEF0FFFDF7F1FFF0B504460D46002099
:101520000021092D11DDE068A5F10A0606EB46074A
:10153000072606FA07F18843A5F10A0606EB4606D8
:1015400003FA06F10843E0600CE0206905EB45076B
:10155000072606FA07F1884305EB450603FA06F16C
:1015600008432061072A0FDA606B561E06EB8607D8
:101570001F2606FA07F18843561E06EB860605FA73
:1015800006F10843606322E00D2A0FDA206BD61FB4
:1015900006EB86071F2606FA07F18843D61F06EBDF
:1015A000860605FA06F10843206310E0E06AA2F11E
:1015B0000D0606EB86071F2606FA07F18843A2F1FF
:1015C0000D0606EB860605FA06F10843E062F0BD5B
:1015D000816841F008018160704721B1826842F45E
:1015E000A002826003E0826822F4A0028260704759
:1015F000816841F0040181607047000030B1074903
:10160000096841F40001054A116005E003490968D1
:1016100021F40001014A11607047000008240140D4
:1016200000B587B001214FF4037002F019FB0121CE
:10163000480202F025FB00214FF4007002F020FB6D
:101640004FF4004002F0F0FA0120ADF80400002051
:101650008DF8070001A91E4800F096FF0120ADF8A3
:10166000040000208DF8070001A91A4800F08CFF43
:101670001948FFF7D9FE002002908DF80C008DF874
:101680000D004FF4602004900020059001208DF89B
:10169000180002A91048FFF717FF0120FFF7AEFF5F
:1016A00001210D48FFF7B4FE0B48FFF791FF00BF83
:1016B0000948FFF7FEFE0028FAD10748FFF798FF18
:1016C00000BF0548FFF7DEFE0028FAD107B000BDD5
:1016D00000080140000C01400024014008B5012130
:1016E000112002F0BDFA012002F096FA002000F06D
:1016F00023F84FF40050ADF8000010208DF80300DF
:1017000002208DF802006946074800F03DFF0020E6
:1017100002F082FA002000F009F84FF4005102486C
:1017200001F006F808BD0000001001400149086002
:101730007047000088860D4201490860704700002C
:1017400000860D4210B59A4890F83C00022804D05B
:10175000032817D004287CD15FE0954A916AD06AAB
:1017600004F084FF07D20120914981F8390000205C
:1017700081F8380005E000208D4981F8390081F8B2
:101780003800D0E08A4A916A106B04F06FFF0FD2E4
:10179000874AD16A106B04F069FF09D2012084499D
:1017A00081F83A00002081F8390081F8380033E0F0
:1017B0007F4A916AD06A04F059FF0FD27C4A116BBC
:1017C000D06A04F053FF09D20120794981F8390029
:1017D000002081F83A0081F838001DE0744AD16A8F
:1017E000906A04F043FF0FD2714A116B906A04F0C3
:1017F0003DFF09D201206E4981F83800002081F8B0
:10180000390081F83A0007E00020694981F83A0080
:1018100081F8390081F8380085E0654A916A506B9B
:1018200004F024FF19D2624AD16A506B04F01EFF03
:1018300013D25F4A116B506B04F018FF0DD20120D8
:101840005B4981F83B00002081F83A0081F83900BB
:1018500000E067E081F8380063E0554A916A106B58
:1018600004F004FF17D2524AD16A106B04F0FEFE56
:1018700011D24F4A516B106B04F0F8FE0BD20120CD
:101880004B4981F83A00002081F83B0081F839008B
:1018900081F8380045E0464A916AD06A04F0E6FED5
:1018A00017D2434A116BD06A04F0E0FE11D2404ACD
:1018B000516BD06A04F0DAFE0BD201203C4981F86A
:1018C0003900002081F83B0081F83A0081F83800A7
:1018D00027E0374AD16A906A04F0C8FE17D2344A2A
:1018E000116B906A04F0C2FE11D2314A516BD06A7A
:1018F00004F0BCFE0BD201202D4981F838000020F5
:1019000081F83B0081F83A0081F8390009E00020B5
:10191000274981F8390081F83B0081F83A0081F8C5
:10192000380000E000BF00BF0120224908602048C5
:1019300090F8380020B100201E490831086003E00B
:1019400001201C4908310860194890F8390020B17D
:10195000002018490C31086003E0012015490C31C2
:101960000860134890F83A0020B100201149103166
:10197000086003E001200F49103108600C4890F81E
:101980003B0020B100200B491431086003E0012026
:1019900008491431086001200649143908600520FF
:1019A00003F01CFC00200449C1F8840110BD0000B4
:1019B00048010020988121420080214200BFFEE7BB
:1019C00010B500241548006820F0704013490860E5
:1019D0000846006840F09E40086004E0601CC4B205
:1019E000012003F021FC0E48006808B1C82CF5DB8B
:1019F000C82C01DB012010BD002404E0601CC4B22F
:101A0000012003F011FC0648006808B9F02CF5DB52
:101A1000F02C01DB0120EEE70020ECE70408014098
:101A20003C0121422DE9F84F00F0CCF800F0A8F875
:101A3000FFF7C6FFCC2000F0D1F8BE2000F0CEF8B2
:101A400000F08CF8834600F089F80446072C08DD86
:101A5000E043C4B26FEA0B0000F0FF0B4FF0000A46
:101A600001E04FF0010AA1464FEA09200FFA80F980
:101A700009EB0B000FFA80F9484604F0CBFC00900C
:101A800004F02EFC07460022084B04F00BFA054632
:101A900004F05CF90FFA80F9BAF1000F02D0484661
:101AA000BDE8F88FC9F1000000B2F9E70000E43F9B
:101AB00008B50121042002F0D3F84FF40040ADF83E
:101AC000000010208DF8030003208DF80200694605
:101AD000064800F059FD4FF40041044800F02AFE8A
:101AE00000F04EF8FFF76CFF08BD00000008014051
:101AF00010B51748006820F0704015490860084686
:101B0000006840F07C500860002012490860022004
:101B100003F08AFB01201049C1F8BC010C480068A1
:101B200020F070400A4908600846006840F09E4076
:101B300008600C2003F078FB06488038006808B184
:101B4000012400E00024322003F06EFB204610BD8B
:101B500004080140BC0121420000214270B500266A
:101B6000012508E0FFF7C4FF0446E00140EA6600F3
:101B7000C6B2681CC5B2082DF4DD304670BD000049
:101B800010B50D48006820F070400B490860084609
:101B9000006840F07C50086000200849086040F26E
:101BA000EE2003F041FB01200549C1F8BC010F20E4
:101BB00003F03AFB10BD000004080140BC012142C3
:101BC0000000214210B5FFF7DBFFFFF7F9FECC2044
:101BD00000F004F8442000F001F810BD70B5044690
:101BE0001848006820F070401649086008460068F0
:101BF00040F07C500860012520E004F001066410EC
:101C00006EB1002010490860022003F00DFB012096
:101C10000E49C1F8BC013C2003F006FB0CE000209B
:101C2000094908603C2003F0FFFA01200749C1F888
:101C3000BC01022003F0F8FA681CC5B2082DDCDDF7
:101C400070BD000004080140BC0121420000214297
:101C5000704700000EB524A000F024F9264A4FF486
:101C60008271462000F03AFF00F064F800F074FB47
:101C70004FF6FF70214908800120102120A2002387
:101C8000CDE9002102904FF6FF72DA210A2002F01E
:101C900083FA012010211EA20023CDE90021029029
:101CA0004FF6FF72DA217C2002F076FA1F201349EA
:101CB00008801A480088801F82B2EC23D8210620B1
:101CC00001F05CF800F072F90120102114A2002349
:101CD000CDE9002102904FF4784240F213111846EA
:101CE00000F02CFF0EBD0000C6BDBAE2B3E4B5E7BC
:101CF000C4A3CABD00000000CC7700083E0000204D
:101D0000B5E7B3D8C0E0D0CD3A4C69504F000000E1
:101D1000B5E7B3D8BDDACAFD3A0000003A010020A9
:101D20005B315D20205B325D20205B335D20205BDA
:101D3000345D00000EB54FF6FF704C4908804C48EA
:101D40000088801F82B230231C21062001F016F883
:101D500047480088801F82B24A233621062001F0BE
:101D60000DF800F015FB00F041FB00F0B7F9012081
:101D7000202140A20023CDE9002102904FF47842B7
:101D800052210A2002F008FA012020213BA2002360
:101D9000CDE9002102904FF478427C210A2002F024
:101DA000FBF94FF47840314908800020354908801C
:101DB0009E2387225021062000F0E0FF0120102101
:101DC00031A20023CDE9002102904FF478426F2127
:101DD000BE2002F0E1F926480088801F82B29E23CF
:101DE0005021912000F0CAFF00F0C8F94FF6FF70B3
:101DF0001E4908800120102125A20023CDE90021E1
:101E000002904FF6FF72A6210A2002F0C5F91F20AA
:101E10001649088016480088801F82B2B823A42182
:101E2000062000F0ABFF00F073FB4FF6FF700F4988
:101E300008800120102118A20023CDE90021029082
:101E40004FF6FF72C0210A2002F0A6F91F200749B1
:101E5000088007480088801F82B2D223BE21062056
:101E600000F08CFF00F02AFB0EBD00003E000020B9
:101E70003A010020B5E7C1F700000000B5E7D1B98D
:101E80000000000040000020C9E8B6A800000000E3
:101E9000CEC2B6C83A000000D4CBD0D0CAB1BCE4A0
:101EA0003A0000003EB504461F2000901D480288FD
:101EB00014230021084600F081FF1F2000901948DC
:101EC000438802884088143881B2002000F076FFF1
:101ED000012010211F234FF6FF72CDE9004102902F
:101EE0000221002000F02AFE012010210EA2CDE9DF
:101EF000002102900B484088123881B21F234FF610
:101F0000FF72002000F01AFE002000900548408873
:101F1000143883B2034802881421002000F04EFFD9
:101F20003EBD00003A0100205374616F6BBAE3D1EB
:101F3000B9BAE3C1F7D4B40010B506A0FFF7B2FFF9
:101F4000074A4FF48271462000F0C8FDFFF7F2FE09
:101F500010BD0000B5E7D4B4C4A3CABD00000000A2
:101F6000CC77000810B51048007860B1012819D16D
:101F700000F00EFA00F002F900F0B0F800F0C8FA34
:101F800000F09CFA0EE000F003FA00F0F7F800F021
:101F9000A5F800F0BDFA00F091FA00F007F800F0A3
:101FA000DBF900BF00BF10BD600000202DE9F04F3D
:101FB00093B014210EA8FEF743FA1C2107A8FEF7E0
:101FC0003FFA394890F8380020B138A10EA8FEF742
:101FD0002BFA03E037A10EA8FEF726FA324890F854
:101FE000390020B131A10EA8FEF71EFA03E031A19D
:101FF0000EA8FEF719FA2C4890F83A0020B12BA150
:102000000EA8FEF711FA03E02AA10EA8FEF70CFABB
:10201000254890F83B0020B128A10EA8FEF704FA4D
:1020200003E027A10EA8FEF7FFF91F49486B04F053
:1020300057F904460D461C49086B04F051F9064651
:102040000F461949C86A04F04BF98046894616497B
:10205000886A04F045F9824652460B4619A107A842
:10206000CDE90089CDE90267CDE90445FEF7BEF868
:10207000002010210EAA0346CDE9002102904FF462
:102080007842EF2100F05AFD0020102107AA0346F4
:10209000CDE9002102904FF4784240F2011100F0A6
:1020A0004DFD13B0BDE8F08F480100204F4E2020B9
:1020B000000000004F464620200000004F4E000068
:1020C0004F464600252E32665620252E3266562073
:1020D000252E32665620252E3266560000B587B072
:1020E00000200490059006901A48006801280CD141
:1020F0000020102118A20346CDE9002102904FF6DE
:10210000FF72382100F01AFD0BE00020102114A20C
:102110000346CDE9002102904FF6FF72382100F00E
:102120000DFD1148027811A104A8FEF75FF8002008
:10213000102104AACDE9002102900F4909885A39DB
:1021400088B200234FF6FF72382102F025F807B05D
:1021500000BD000084012142BAE3D1B900000000B3
:10216000BAE3C1F7000000003A0000204572724354
:102170006F64653A253164003A01002030B58FB0B4
:1021800000200D900E900B900C9009900A900790F3
:102190000890059006900390049001900290614988
:1021A000086804F09DF8044622460B465EA10DA87F
:1021B000FEF71CF85B49486804F092F80446224692
:1021C0000B4659A109A8FEF711F85649886804F092
:1021D00087F8044622460B4655A10BA8FEF706F8E1
:1021E0005049C86804F07CF8044622460B4650A1CA
:1021F00003A8FDF7FBFF4B49086904F071F804469A
:1022000022460B464AA101A8FDF7F0FF4A480068A4
:1022100004F066F8044622460B4648A107A8FDF7DD
:10222000E5FF4FF6FF704749088000200DAB1022F4
:102230005A210090522001F07DF800200BAB1022B3
:1022400084210090522001F075F83F480078A8BB27
:102250003E480078012808D1002007AB10225A21FF
:102260000090962001F066F835E0384800780228A2
:1022700003D036480078042808D1002009AB10228A
:102280005A210090962001F055F824E02F4800785C
:10229000032820D12349486904F022F80446224645
:1022A0000B4626A105A8FDF7A1FF002005AB1022D3
:1022B0005A210090962001F03DF80CE0FFE72248FB
:1022C0000078012807D1002009AB10225A21009084
:1022D000962001F02FF81C480078A8B91B48007818
:1022E000052808D100201AA31022842100909620EE
:1022F00001F020F814E0002001AB102284210090AE
:10230000962001F017F80BE00F480078012807D15C
:10231000002003AB102284210090962001F00AF8DF
:102320000FB030BD48010020252E3266410000006C
:10233000252E32665620000058000020252E3266D9
:10234000560000003E0000206000002061000020D8
:10235000302E3030000000001CB50A4890F83C20B8
:1023600009A101A8FDF742FF4FF6FF700749088059
:10237000002001AB1022DA210090CE2000F0DAFF1D
:102380001CBD000048010020253164003E000020F3
:102390000EB50F48006801280CD1002010210DA2B5
:1023A0000346CDE9002102904FF4FC621E2100F0AB
:1023B000C5FB0BE00020102109A20346CDE9002156
:1023C00002904FF478421E2100F0B8FB0EBD0000D1
:1023D000A0012142D7B4CCAC3AD4CBD0D00000007D
:1023E000D7B4CCAC3ACDA3BBFA00000008B5304856
:1023F0000068012837D12F480078A0B12D48007817
:1024000008B9012000E000202A49087001202A496B
:1024100000900988A1F1140005234FF4FC622621E5
:1024200002F028FF42E02348007808B9012000E0CC
:1024300000202049087001201F4900900988A1F15F
:10244000140005230022262102F014FF00201A495F
:1024500000900988A1F1140005234FF6FF72262190
:1024600002F008FF22E00120134900900988A1F141
:10247000140005230022262102F0FCFE00200E4954
:1024800000900988A1F1140005234FF6FF72262160
:1024900002F0F0FE0120084900900988A1F1140023
:1024A00004234FF47842262102F0E4FE08BD000028
:1024B000A00121424B0000203A01002000B585B068
:1024C000002001900290039004900B48B0F80B207C
:1024D0000A4803880AA101A8FDF788FE4FF6FF709D
:1024E0000A490880002001AB1022C021009066201C
:1024F00000F020FF05B000BD2C010020520000209C
:1025000025646D696E2F25646D696E003E000020A4
:1025100010B586B000200390049005901448007810
:1025200001280ED0FFF77EFA0A2190FBF1F000B2ED
:1025300010490880FFF776FA0A2190FBF1F201FBBF
:10254000120423460B48B0F900200BA103A8FDF7A5
:102550004DFE0020102103AA4FF6FF73CDE90021A4
:1025600002900246A6213C2001F016FE06B010BDE6
:102570003A0000204C000020444556202532642EAD
:10258000253164A1E60000002DE9F0410246002556
:102590000026002000230024002791F803C00CF03F
:1025A0000F0591F803C00CF0100CBCF1000F03D024
:1025B00091F802C04CEA050591F800C0BCF1000F8B
:1025C00031D0146800202BE04FF0010C0CFA00F31E
:1025D000B1F800C00CEA03069E4220D183004FF000
:1025E0000F0C0CFA03F7BC4305FA03FC4CEA040495
:1025F00091F803C0BCF1280F06D14FF0010C0CFA82
:1026000000FCC2F814C00AE091F803C0BCF1480F06
:1026100005D14FF0010C0CFA00FCC2F810C0401CB0
:102620000828D1D31460B1F800C0BCF1FF0F34DD2D
:10263000546800202EE000F1080C4FF0010808FA61
:102640000CF3B1F800C00CEA03069E4221D18300CE
:102650004FF00F0C0CFA03F7BC4305FA03FC4CEAED
:10266000040491F803C0BCF1280F05D100F1080C57
:1026700008FA0CF8C2F8148091F803C0BCF1480FB6
:1026800007D100F1080C4FF0010808FA0CF8C2F865
:102690001080401C0828CED35460BDE8F0810000B3
:1026A000F0B50A46002300240021002500F0004672
:1026B000B6F1004F02D11D4EF16901E01B4E716869
:1026C000C0F3034583B200F44016B6F5401F08D1AD
:1026D00021F07061154E766826F07066134F7E60AB
:1026E00012E000F48016B6F5801F06D1032606FA24
:1026F00005F4A14341F0706106E0460D360103FA8E
:1027000006F6B14341F0706122B1460D360103FA7D
:1027100006F6314300F00046B6F1004F02D1034EF9
:10272000F16101E0014E7160F0BD00000000014068
:1027300041617047016170472DE9FC5F054688469D
:1027400091469A46DDF830B000951D200190002496
:102750005FE004EB0410374911F810009BF80010FB
:10276000884253D104EB0410324901EB4000407819
:102770009BF80110884249D108F10F0083B205F19E
:102780000F0082B24146284600F018FD00263BE0CB
:10279000002734E00D9890B904EB0410254901EBB3
:1027A0004000801C805D80213941084018B14846B6
:1027B00000F0B4FA21E0504600F0B0FA1DE01E48E7
:1027C000A0F8009004EB04101A4901EB4000801CB3
:1027D000805D80213941084018B14146284600F00B
:1027E00061FA681C85B20098281A102805D1009D4E
:1027F00008F101001FFA80F803E0781CC7B2082F27
:10280000C8DB00BF701CC6B2202EC1DB00BF601C3D
:1028100084B2019884429CDB08484088401E83B201
:1028200006480088401E82B20021084600F0C6FC1F
:10283000BDE8FC9F227200083E0000203A01002003
:102840002DE9FC5F0546884691469A46DDF830B092
:10285000009501200190002467E004EB840000EB68
:1028600044103A4911F810009BF80010884259D1E1
:1028700004EB840000EB4410344901EB4000407845
:102880009BF8011088424DD108F1170083B205F181
:10289000170082B24146284600F090FC00263FE037
:1028A000002738E00D98A0B904EB840000EB441039
:1028B000264901EB4000801C805D802139410840A1
:1028C00018B1484600F02AFA23E0504600F026FAF4
:1028D0001FE01F48A0F8009004EB840000EB4410B8
:1028E0001A4901EB4000801C805D8021394108407D
:1028F00018B14146284600F0D5F9681C85B2009809
:10290000281A182805D1009D08F101001FFA80F847
:1029100003E0781CC7B2082FC4DB00BF701CC6B22E
:10292000482EBDDB00BF601C84B20198844294DB5A
:1029300008484088401E83B206480088401E82B284
:102940000021084600F03AFCBDE8FC9FFC75000839
:102950003E0000203A0100202DE9FC5F0546884634
:1029600091469A46DDF830B000950320019000248E
:102970005FE004EB8410374911F810009BF8001059
:10298000884253D104EB8410324901EB4000407877
:102990009BF80110884249D108F11F0083B205F16C
:1029A0001F0082B24146284600F008FC00263BE0AA
:1029B000002734E00D9890B904EB8410254901EB11
:1029C0004000801C805D80213941084018B1484694
:1029D00000F0A4F921E0504600F0A0F91DE01E48E7
:1029E000A0F8009004EB84101A4901EB4000801C11
:1029F000805D80213941084018B14146284600F0E9
:102A000051F9681C85B20098281A202805D1009D2C
:102A100008F101001FFA80F803E0781CC7B2082F04
:102A2000C8DB00BF701CC6B2802EC1DB00BF601CBB
:102A300084B2019884429CDB08484088401E83B2DF
:102A400006480088401E82B20021084600F0B6FB0E
:102A5000BDE8FC9F467600083E0000203A010020B9
:102A600070B505460E4614463146284600F074FB04
:102A7000204600F053F970BD10B50446072301222B
:102A800021460948FEF748FD01210748FEF7A5FD4C
:102A900000BF02210448FEF703FD0028F9D00248D8
:102AA000FEF7FAFC10BD0000002401402DE9F041C2
:102AB00007460C460025002608E03846FFF7DCFFF5
:102AC0000544022002F08AFB701CC6B2A642F4DB69
:102AD000B5FBF4F080B2BDE8F08100002DE9F047CD
:102AE00006460F46154607F1270083B206F163003C
:102AF00082B23946304600F061FB00240AE015F846
:102B0000149005EB440090F8018049EA082000F099
:102B100005F9641CB4F57A6FF1DB07484088401E64
:102B200083B205480088401E82B20021084600F0AA
:102B300045FBBDE8F08700003A0100202DE9FF4F7A
:102B400083B004460F469046DDE9119A109D284651
:102B5000FDF74BFC86B20A490988A1EBC60000EBE1
:102B6000D071C1F34F0B04EB0B0188B28DE8200646
:102B700042463946069B01F00FFB07B0BDE8F08FD7
:102B80003A01002000BFFEE74CF6CC400149086046
:102B9000704700000030004010B500F011F810BD83
:102BA00010B545F2555000F01FF8062000F010F85F
:102BB0009C2000F013F800F003F8FFF7E5FF10BDCC
:102BC0004AF6AA2001490860704700000030004022
:102BD00001494860704700000030004001498860AA
:102BE0007047000000300040014908607047000055
:102BF000003000402DE9FF4F85B081468A46002015
:102C0000049003900798A0EB09050898A0EB0A062A
:102C1000CDF80890CDF804A0002D01DD012705E0D6
:102C20000DB9002702E04FF0FF376D42002E02DDA4
:102C30004FF0010806E016B94FF0000802E04FF02F
:102C4000FF387642B54201DD2C4600E034464FF0B5
:102C5000000B21E0019A91B2029A90B200F022F8A2
:102C60000498284404900398304403900498A042A8
:102C700005DD0498001B04900298384402900398E4
:102C8000A04205DD0398001B039001984044019089
:102C90000BF101001FFA80FB601C8345DADD09B0EF
:102CA000BDE8F08F30B504460D462946204600F0B9
:102CB00053FA082017490860202008604020091DA9
:102CC0000860144808380068C0B21349098801F444
:102CD0007F4108430F49091F086010200D49091D55
:102CE0000860091F08600B4808380068C0B20A492C
:102CF00009884FF47F4202EA012108430549091F70
:102D0000086010200349091D0860091F0860402061
:102D1000086030BD100C01403E0000200821164A1A
:102D20001160202111604021121D116012490839E3
:102D30000968C9B200F47F4211430F4A121F1160A3
:102D400010210D4A121D1160121F11600A49083925
:102D50000968C9B24FF47F4202EA00221143064AD1
:102D6000121F11601021044A121D1160121F116000
:102D70004021116070470000100C01402DE9F04126
:102D800004460D4616461F462B4632462946204627
:102D9000FFF730FF3B46224629462046FFF72AFF31
:102DA0003B46324639462046FFF724FF3B46324633
:102DB00029463046FFF71EFFBDE8F0812DE9F84FA8
:102DC00006460F4614461D46DDF82880A01B401C11
:102DD0001FFA80FBE81B401C80B20090681E83B283
:102DE000601E82B23946304600F0E8F920202549BD
:102DF00008604020091D08604FF000092EE04FF0E8
:102E0000000A25E01F4808380068C0B208F47F4176
:102E100008431C49091F086010201A49091D086051
:102E2000091F0860174808380068C0B24FF47F4196
:102E300001EA082108431349091F086010201149BD
:102E4000091D0860091F08600AF101001FFA80FAD5
:102E5000DA45D7DB09F101001FFA80F900988145B6
:102E6000CDDB40200749086007484088401E83B2F8
:102E700005480088401E82B20021084600F09EF9F5
:102E8000BDE8F88F100C01403A01002008B501217F
:102E9000092000F0E5FE01211148FFF701FC4FF683
:102EA000F870ADF8000010208DF8030003208DF8B5
:102EB000020069460B48FFF767FB4FF6F8710948B7
:102EC000FFF738FC402007491031086020200860D7
:102ED00010200860082008608020086008BD0000FD
:102EE00000023000000C014010B5FFF7CFFF00F0EA
:102EF0001BF9CF2000F072FA002000F051FAC12037
:102F000000F04EFA302000F04BFAED2000F066FAA7
:102F1000642000F045FA032000F042FA122000F08D
:102F20003FFA812000F03CFAE82000F057FA8520B3
:102F300000F036FA102000F033FA7A2000F030FA70
:102F4000CB2000F04BFA392000F02AFA2C2000F0B8
:102F500027FA002000F024FA342000F021FA0220A1
:102F600000F01EFAF72000F039FA202000F018FADD
:102F7000EA2000F033FA002000F012FA002000F0FE
:102F80000FFAC02000F02AFA232000F009FAC1202D
:102F900000F024FA102000F003FAC52000F01EFA19
:102FA000302000F0FDF9302000F0FAF9C72000F0E1
:102FB00015FAB72000F0F4F9362000F00FFA482097
:102FC00000F0EEF93A2000F009FA552000F0E8F997
:102FD000B12000F003FA002000F0E2F91A2000F01E
:102FE000DFF9B62000F0FAF90A2000F0D9F9A220A2
:102FF00000F0D6F9272000F0D3F9F22000F0EEF926
:10300000002000F0CDF9262000F0E8F9012000F0C2
:10301000C7F9E02000F0E2F90F2000F0C1F92A2002
:1030200000F0BEF9282000F0BBF9082000F0B8F944
:103030000E2000F0B5F9082000F0B2F9542000F09D
:10304000AFF9A92000F0ACF9432000F0A9F90A205B
:1030500000F0A6F90F2000F0A3F9002000F0A0F97D
:10306000002000F09DF9002000F09AF9002000F007
:1030700097F9E12000F0B2F9002000F091F9152055
:1030800000F08EF9172000F08BF9072000F088F986
:10309000112000F085F9062000F082F92B2000F0C5
:1030A0007FF9562000F07CF93C2000F079F90520EA
:1030B00000F076F9102000F073F90F2000F070F99D
:1030C0003F2000F06DF93F2000F06AF90F2000F07A
:1030D00067F92B2000F082F9002000F061F9002050
:1030E00000F05EF9012000F05BF93F2000F058F994
:1030F0002A2000F073F9002000F052F9002000F0BF
:103100004FF9002000F04CF9EF2000F049F91120B0
:1031100000F064F9782002F061F8292000F05EF9EF
:1031200000F036F810BD000010B580200949086095
:10313000012002F053F880200649091D08601E2076
:1031400002F04CF8802003490860642002F046F841
:1031500010BD0000100C014010B503460C460B4991
:10316000887A00F03BF9181200F01AF9D8B200F092
:1031700017F90649087B00F031F9201200F010F928
:10318000E0B200F00DF900F045F910BD3A01002061
:1031900000B52C200849088100208871F0200880A3
:1031A0004FF4A07048802A2048812B2088818821F4
:1031B000362000F037F900BD3A01002070B5044612
:1031C0000D4616461149887A00F008F9201200F0E1
:1031D000E7F8E0B200F0E4F8301200F0E1F8F0B205
:1031E00000F0DEF80949087B00F0F8F8281200F03A
:1031F000D7F8E8B200F0D4F8181200F0D1F8D8B23D
:1032000000F0CEF800F006F970BD00003A01002091
:103210002DE9FF4F83B081468A469346DDE910646D
:10322000404800880290A6F12000C6B204EBD4709A
:1032300009EB6000401E82B20AEB0400401E83B21C
:10324000514648460194FFF7B9FF129850BB00253C
:1032500025E00C2C07D106EB4600334901EB80003A
:1032600010F8058004E0314800EB061010F80580E6
:1032700000270DE008F0010018B15846FFF74EFD99
:1032800002E00698FFF74AFD4FEA6808781CC7B2CB
:1032900004EBD471B7EB610FECDB681CC5B2A5423F
:1032A000D7DB2DE0002529E00C2C07D106EB4600EA
:1032B0001D4901EB800010F8058004E01B4800EB7D
:1032C000061010F80580002711E01648A0F800B09D
:1032D00008F0010038B10AEB050291B209EB0702D0
:1032E00090B2FFF7DFFC4FEA6808781CC7B204EB26
:1032F000D471B7EB610FE8DB681CC5B2A542D3DB24
:103300000849029808800A484088401E83B208484D
:103310000088401E82B200210846FFF74FFF07B029
:10332000BDE8F08F3E000020BE670008326C000848
:103330003A0100202DE9FE4306460F4615461C467D
:10334000DDF828801DE013480088401EB04204DBF1
:1033500010484088401EB84201DABDE8FE8320785C
:103360008DE821010C4803880C4802883946304614
:10337000FFF74EFF284605EBD07106EB61018EB2D8
:10338000641C20787E2802DC20782028DBDA00BF4D
:10339000E3E700003A010020400000203E0000204A
:1033A00020210D4A11604021121D11600A4908397F
:1033B0000968C9B24FF47F4202EA00221143064A6B
:1033C000121F11601021044A121D1160121F11609A
:1033D0004021116070470000100C014020210C4A70
:1033E0001160402111600A490C390968C9B24FF4D3
:1033F0007F4202EA00221143054A083A1160102177
:10340000034A1160121F11604021116070470000D3
:10341000140C014000B50249087AFFF7DFFF00BD38
:103420003A01002010B504460B462046FFF7D6FFB0
:103430001846FFF7B5FF10BD08B5564800780028BC
:103440005CD001287ED1544900900988A1F1460042
:1034500005230022262101F00DFF01200523002273
:1034600062210090CD2001F005FF012005230022FC
:103470008C210090CD2001F0FDFE012005230022CB
:10348000C8210090CF2001F0F5FE444800780128C3
:1034900006D0022811D0032819D004282BD120E00F
:1034A00001203D4900900988A1F1460005234FF60F
:1034B000FF72262101F0DEFE1EE0012005234FF6FB
:1034C000FF7262210090CD2001F0D4FE14E00120B3
:1034D00005234FF6FF728C210090CD2001F0CAFE2B
:1034E0000AE0012005234FF6FF72C8210090CF208B
:1034F00001F0C0FE00E000BF00BF49E00120264906
:1035000000900988A1F1460005230022262101F040
:10351000B1FE01200523002262210090CD2001F0A0
:10352000A9FE012005230022C8210090CF2001F030
:10353000A1FE1B480078012805D0022810D00328DE
:1035400022D117E023E00120134900900988A1F15E
:10355000460005234FF6FF72262101F08BFE14E092
:10356000012005234FF6FF7262210090CD2001F06B
:1035700081FE0AE0012005234FF6FF72C82100906A
:10358000CF2001F077FE00E000BF00BF00E000BFE9
:1035900000BF08BD600000203A0100204A00002062
:1035A0004900002000BFFEE77047000070B5002111
:1035B00000230F22C47804B3154C246804F4E0649B
:1035C000C4F5E064210AC1F10403CA40447804FA56
:1035D00003F184781440214309010E4C0678A1556B
:1035E000047804F01F050124AC4005786D11AD008E
:1035F00005F1E025C5F8004109E0047804F01F0555
:103600000124AC40044D0678761145F8264070BD83
:103610000CED00E000E400E080E100E0024901433D
:10362000024A1160704700000000FA050CED00E04E
:103630002DE9F04194480068012804D193480078AE
:1036400008B900F045FE9248007804280DD1012009
:103650009049087000208E4908708F48007808B99A
:10366000012000E000208C4908708948007801287A
:1036700010D1884908700020854908708748007873
:10368000401CC0B285490870032801DD0120087084
:10369000FFF7D2FE7E480078032811D101207D4932
:1036A000087000207A4908707C480078401EC0B23B
:1036B0007A490870012801DA03200870FFF7BCFE80
:1036C0007348007802286ED10120724908700020EA
:1036D0006F49087071480078012804D0022815D07D
:1036E00003285ED140E06E4890F83C0068B166481F
:1036F000006818B901206449086006E000206249AA
:10370000086068480089684908804BE05E480068A6
:1037100048BB6148007870B16149486802F0E0FD3B
:103720000646624A624B02F0F1FC044602F0D0F811
:103730005B4948600DE05A49486802F0D1FD0646F1
:103740005C4A5D4B02F0E2FC044602F0C1F85449C9
:103750004860534AD169506802F088FE03D250484D
:10376000C0694F4948601DE04B48007828B1534874
:1037700000880A385149088004E050480088401EFB
:103780004E4908804748B0F80B00401D4B49098856
:10379000884205DD4348B0F80B00401D47490880CA
:1037A00000E000BF00BF3A48007805286AD1012038
:1037B00038490870002036490870384800780128D8
:1037C00004D0022815D003285AD140E0344890F89C
:1037D0003C0068B12C48006818B901202A490860EB
:1037E00006E00020284908602E4800892E490880FC
:1037F00047E02548006848BB2748007870B1284951
:10380000486802F06DFD0646284A294B02F092F8FE
:10381000044602F05DF8224948600DE020494868FE
:1038200002F05EFD0646234A234B02F083F804466D
:1038300002F04EF81A494860194A5169506802F07E
:1038400015FF03D2164840691549486019E012482F
:10385000007828B1194800880A301849088004E027
:1038600016480088401C15490880144800881449EF
:103870000988884203DD124800881049088000E06A
:1038800000BF00BFBDE8F081A00121423A00002046
:10389000440000204800002045000020490000208E
:1038A000480100202C0100203C0000209A999999A1
:1038B0009999B93F7B14AE47E17A843F52000020CA
:1038C000500000202DE9F041C4480068012804D1CF
:1038D000C348007808B900F055FEC24800780428B3
:1038E0000DD10120C04908700020BE490870BF48B2
:1038F000007808B9012000E00020BC490870B948F0
:103900000078012810D1B84908700020B549087026
:10391000B7480078401CC0B2B5490870042801DDE2
:1039200001200870FFF788FDAE480078032811D108
:103930000120AD4908700020AA490870AC48007801
:10394000401EC0B2AA490870012801DA042008709C
:10395000FFF772FDA348007802287DD10120A2491B
:10396000087000209F490870A1480078012806D0FF
:10397000022813D0032840D004286ED16EE0974867
:10398000006818B901209549086006E000209349B5
:10399000086098480089984908807DE000208F4998
:1039A0001C3908609148007870B19449486802F069
:1039B00097FC0646924A934B02F0A8FB044601F09E
:1039C00087FF8E4948600DE08C49486802F088FC0A
:1039D00006468D4A8D4B02F099FB044601F078FFB4
:1039E00086494860854AD169506802F03FFD03D29C
:1039F0008248C069814948604EE0012077491C39FE
:103A000008607A48007870B17C49C86802F068FCA8
:103A100006467B4A7B4B02F079FB044601F058FFD7
:103A20007649C8600DE07549C86802F059FC064641
:103A3000754A764B02F06AFB044601F049FF6F4974
:103A4000C8606E4A116AD06802F010FD03D26B485C
:103A5000006A6A49C8601FE01FE01CE06348007804
:103A600028B16B4800880A386949088004E0684832
:103A70000088401E664908805E48B0F80B00401D73
:103A800063490988884205DD5A48B0F80B00401D9B
:103A90005F49088000E000BF00BF52480078052859
:103AA0007DD101205049087000204E4908705048CF
:103AB0000078012806D0022813D0032840D004281B
:103AC0006ED16EE04548006818B90120434908608E
:103AD00006E00020414908604648008946490880C0
:103AE00079E000203D491C3908604048007870B1F9
:103AF0004249486802F0F4FB0646414A414B01F056
:103B000019FF044601F0E4FE3C4948600DE03B49E2
:103B1000486802F0E5FB06463B4A3C4B01F00AFFD1
:103B2000044601F0D5FE35494860344A5169506871
:103B300002F09CFD03D231484069304948604AE0B8
:103B4000012026491C3908602848007870B12B49AB
:103B5000C86802F0C5FB0646294A2A4B01F0EAFE76
:103B6000044601F0B5FE2549C8600DE02349C86848
:103B700002F0B6FB0646244A244B01F0DBFE044665
:103B800001F0A6FE1D49C8601C4A9169D06802F088
:103B90006DFD03D2194880691849C8601BE01BE01D
:103BA00018E01248007828B1194800880A301849EE
:103BB000088004E016480088401C15490880144815
:103BC000008814490988884203DD1248008810499A
:103BD000088000E000BF00BFBDE8F081A0012142E5
:103BE0003A0000204400002048000020450000204A
:103BF0004A0000202C0100203C0000204801002049
:103C00009A9999999999B93F7B14AE47E17A843F83
:103C10005200002050000020014908627047000057
:103C200000000E427047000001460020034A506821
:103C300020F44040084350607047000000100240EC
:103C400029B1064AD2690243044BDA6104E0034A0F
:103C5000D2698243014BDA617047000000100240D4
:103C600029B1064A92690243044B9A6104E0034A6F
:103C700092698243014B9A61704700000010024034
:103C800029B1064AD2680243044BDA6004E0034AD1
:103C9000D2688243014BDA60704700000010024096
:103CA00030B500210022002400232D4D6D6805F061
:103CB0000C0121B1042905D0082923D105E0294DA3
:103CC000056022E0274D05601FE0254D6D6805F475
:103CD0007012234D6D6805F48034022505EB924285
:103CE0001CB9214D554305600BE01D4D6D6805F471
:103CF00000351DB11C4D5543056002E0194D55437B
:103D0000056002E0174D056000BF00BF144D6D68EF
:103D100005F0F0010909154D6B5C0568DD40456053
:103D20000F4D6D6805F4E061090A104D6B5C456844
:103D3000DD4085600A4D6D6805F46051C90A0B4D80
:103D40006B5C4568DD40C560054D6D6805F440411C
:103D5000890B074D6B5CC568B5FBF3F5056130BD9C
:103D60000010024000127A0000093D0018000020F7
:103D70002800002070B50446002600201249086083
:103D800005E0701CC6B2C82E01DD002070BD022106
:103D90000E4800F029F80028F3D02546012001F054
:103DA0001DFA2912094800F028F8012001F016FA3E
:103DB000E1B2064800F021F8012001F00FFA0120DD
:103DC0000149086000BFE1E7900121420030014055
:103DD00021B1028842F04002028004E002884FF6DE
:103DE000BF731A40028070470246002013890B40BF
:103DF0000BB1012000E0002070478181704710B5B1
:103E00000022028802F441520B884C8823438C889C
:103E10002343CC8823430C8923434C8923438C8937
:103E20002343CC8923431A430280838B4FF2FF74D0
:103E3000234083830B8A038210BD704700B587B08F
:103E40004FF4A060FFF7EAFB01211D20FFF708FFF8
:103E500001210803FFF704FF4FF48170ADF818004B
:103E600010208DF81B0003208DF81A0006A93A488F
:103E7000FEF78AFB4020ADF8180004208DF81B00E7
:103E800006A93548FEF780FBA020ADF818001820E1
:103E90008DF81B0006A93048FEF776FB1020ADF820
:103EA00018008DF81B0006A92B48FEF76DFB1021AA
:103EB0002948FEF73FFC4FF44040ADF804004FF4B2
:103EC0008270ADF806000020ADF80800ADF80A00D9
:103ED000ADF80C004FF40070ADF80E003820ADF8CE
:103EE00010000020ADF812000720ADF8140001A961
:103EF0001A48FFF784FF01211848FFF769FF4FF4C4
:103F000080711548FEF714FC02211348FEF712FCDD
:103F10000220ADF8180010208DF81B0003208DF84A
:103F20001A0006A90E48FEF72FFB4FF470610C48EB
:103F3000FEF700FC4FF4E0410948FEF7F9FB0221CF
:103F40000748FEF7F7FB052001F048F90221044875
:103F5000FEF7EEFB07B000BD000801400030014055
:103F6000000C014010B5044601202D490860082CC2
:103F700048D2DFE804F0042B15360A4720414FF4FD
:103F8000E0412848FEF7D4FB3DE04FF4405125487E
:103F9000FEF7CEFB4FF480412248FEF7CBFB32E028
:103FA0004FF4A0411F48FEF7C3FB4FF400511D48DA
:103FB000FEF7C0FB27E04FF480511A48FEF7B8FB2C
:103FC0004FF4C0411748FEF7B5FB1CE04FF4C04169
:103FD0001448FEF7ADFB4FF480511248FEF7AAFBE0
:103FE00011E04FF480410F48FEF7A2FB4FF440511F
:103FF0000C48FEF79FFB06E04FF4E0410948FEF74E
:1040000099FB00E000BF00BF01200549143908609A
:10401000052001F0E3F800200349C1F8840110BD38
:1040200098812142000C0140008021422DE9F04797
:104030008146484602F054F90746194A194B02F0E6
:1040400065F8054601F044FC81464FF08041484642
:1040500002F00CFB02D24FF0804906E000214846F6
:1040600002F004FA01D24FF000094FF08B414846AC
:1040700002F030FA824602F033F907460A4A0B4B47
:1040800001F00CFD054601F091FE84B2C4F30B046F
:1040900044F4E0442046FFF76DFEBDE8F0870000E1
:1040A0003BDF4F8D976E823FFCA9F1D24D620040FD
:1040B00010B500F001F810BD0CB500200190009083
:1040C0003348006840F480303149086000BF304810
:1040D000006800F4003000900198401C01900098A6
:1040E00018B90198B0F53C5FF1D12948006800F497
:1040F000003010B10120009001E0002000900098F5
:10410000012843D12348006840F01000214908608D
:104110000846006820F0030008600846006840F088
:10412000020008601A48406819494860084640681B
:1041300048600846406840F480604860084640682F
:1041400020F47C1048600846406840F4E81048605D
:104150000846006840F08070086000BF0C480068A6
:1041600000F000700028F9D00948406820F00300F2
:10417000074948600846406840F00200486000BFB8
:104180000348406800F00C000828F9D10CBD00007D
:1041900000100240002002402DE9FF4F83B0064688
:1041A00088469146DDE91147109DB2464FF0000B5D
:1041B00071E0BBF1000F40D104EBD471384A128892
:1041C000A2EB6101B14204DB35494988091B414535
:1041D00002DA07B0BDE8F08F2878802802DD4FF0C2
:1041E000010B58E028780D2806D108EB04001FFACF
:1041F00080F856466D1C1EE0102C0DDD102128782D
:104200008DE883004A4641463046069BFFF700F89A
:1042100006F1080086B20EE028788DE891004A4643
:1042200041463046069BFEF7F3FF204604EBD07173
:1042300006EB61018EB26D1C2DE019480088001B51
:10424000B04204DB16484088001B404500DAC0E756
:104250004FF0000B202C08D1CDE900574A464146CB
:104260003046069BFEF778FB12E0182C08D1CDE90A
:1042700000574A4641463046069BFEF7E1FA07E002
:10428000CDE900574A4641463046069BFEF754FAB0
:10429000AD1C301986B2287800288AD100BF98E773
:1042A0003A010020042808D14FF0E021096941F0CB
:1042B00004014FF0E022116107E04FF0E0210969AD
:1042C00021F004014FF0E0221161704770470000B7
:1042D0002DE9FE4F9A4890F83C00012806D00228AC
:1042E0000FD003281FD0042856D135E09449886A9E
:1042F0009449096802F0BAF802D201209249087084
:104300004BE08F49886A8F49096802F0AFF806D3FD
:104310008B49C86A8B49096802F0A8F802D20120CB
:104320008949087039E08649886A8649096802F037
:104330009DF80DD38249C86A8249096802F096F84F
:1043400006D37F49086B7F49096802F08FF802D2D3
:1043500001207D49087020E07949886A7949096817
:1043600002F084F814D37649C86A7649096802F0E5
:104370007DF80DD37249086B7249096802F076F82E
:1043800006D36F49486B6F49096802F06FF802D293
:1043900001206D49087000E000BF00BF6A48007846
:1043A000012818D0664991F83C0001F02CFD8046A8
:1043B000664A674B01F076FD04460D466049886801
:1043C00001F08EFF064622462B4601F02FFD02D259
:1043D00002205D4908705C480078012818D05849CF
:1043E00091F83C0001F00FFD8046584A584B01F00F
:1043F00059FD04460D465249886801F071FF064692
:1044000022462B4601F04CFE02D803204E4908708C
:104410004D48007803280ED1494908684D4909687C
:1044200002F024F807D80520474908704A48B0F838
:104430000B004A49088044480078052814D14648B2
:10444000B0F80B0045490988401A05280CDB3C49A7
:1044500088684349096802F009F805D201204149FA
:10446000086004203849087037480078012825D1B1
:1044700000203C491C3908601E2000F0AFFE354882
:10448000006801F02DFF8046374A384B01F00AFDE5
:1044900006460022364B01F04DFA04460022354B09
:1044A00001F000FD8246294A334B01F0F7FACDE9CD
:1044B000000101F00DFA0290FFF7B8FD22480078E4
:1044C000022803D020480078042808D1002025497C
:1044D0001C3908601E2000F081FE00F053F81A48D5
:1044E000007803281AD101201E491C3908601E20BB
:1044F00000F074FE1249086901F0F2FE064600223F
:104500001E4B01F0CBFA804600221A4B01F0CAFC88
:10451000044601F0DDF98246FFF788FD0A4800787D
:1045200005280AD101200F491C3908601E2000F01F
:1045300055FE00201249C1F8A001BDE8FE8F000021
:10454000480100205400002061000020CDCCCCCCDC
:10455000CCCC1040580000202C010020620000202C
:104560005C000020A0012142AE47E17A14AEC73FB3
:104570000000044000002440CCCC304000405940B2
:10458000000021422DE9F04F87B03D48006848B354
:10459000012870D13B49C86801F0A2FE3A4A3B4B62
:1045A000CDE9040101F0B2FD80460022384B01F054
:1045B00075FA06460022374B01F074FC044601F000
:1045C00087F98346584601F08BFE0646324A334B44
:1045D00001F064FA044601F07BF983465846FFF780
:1045E00025FD49E02749486801F07AFE06462C4A35
:1045F0002C4B01F057FC234ACDE904015168506867
:1046000001F068FF019001F06BFE0646264A274B39
:1046100001F048FCCDE90201DDE9042301F08AF94B
:104620000446234A234B01F085F9804601F050F9F6
:104630008246504601F054FE80461F4A1F4B01F04F
:1046400031FC06461E4A1F4B01F060FD044601F096
:104650003FF90690069801F043FE06460E4A0F4BBE
:1046600001F01CFA044601F033F906900698FFF7B2
:10467000DDFC01E0FFE700BF00BF07B0BDE8F08F41
:1046800084012142480100207B14AE47E17AA43F17
:1046900000405940000024409A9999999999F13F16
:1046A0003EE8D9ACFA5CE93FD49AE61DA7E8B83FEA
:1046B0009487855AD3BCC33FAC8BDB68006FD93F6E
:1046C000C7BAB88D06F0863F00202C49086001204B
:1046D0002B49C1F884012B4908704FF416702A4900
:1046E00008807820294908800020294981F83C0069
:1046F0004FF080404861274888614FF07C50C86186
:1047000025480862002008608860084640694860C3
:104710002248C860002008618862C8620863486354
:1047200081F8380081F8390081F83A0081F83B00BF
:104730001B481C4908604FF07C501B4908601B480F
:104740001B4908601B481249486202201A49087038
:1047500000201A4908701A4908701A4908701A4945
:1047600008701A4908700120194908701949087021
:104770001B2019490880194908807047A00121426F
:104780000000214260000020500000205200002064
:10479000480100200000A041000040409A99494192
:1047A0000000604054000020580000203333834054
:1047B0005C0000200000C84261000020440000208E
:1047C000450000204600002047000020480000204F
:1047D000490000204A0000204C0000204E0000202C
:1047E0002DE9F04F8FB00620FFF7BCFB052000F04D
:1047F000F5FC05210020FEF759F9824601F003FB84
:1048000080464FF066326B4B01F04CFB06460022AF
:10481000694B01F043F9044601F05AF86749086012
:10482000086801F05DFD8046654A664B01F082F83C
:104830000646654A654B01F031F9044601F048F837
:104840005E490860086801F04BFD0446604A614B10
:1048500001F028FBCDE908015849086801F040FD46
:1048600004460D465549086801F03AFD06465A4A85
:104870005A4B01F017FB804622462B4601F012FBF3
:10488000CDE904014D49086801F02AFDCDE9000198
:104890004A49086801F024FD04460D464749086866
:1048A00001F01EFD80464E4A4E4B01F0FBFA0646D3
:1048B00022462B4601F0F6FA8246DDE9002301F09C
:1048C000F1FACDE90201DDE9042301F01FFCCDE995
:1048D0000601DDE9082301F02DF8434A434BCDE9F9
:1048E0000A0101F013FCCDE90C0100F0F1FF33499E
:1048F00008600868002101F0B9FD02D200202F49AC
:1049000008600720FFF72EFB052000F067FC05215B
:104910000020FEF7CBF80B9001F075FA06464FF039
:104920006632244B01F0BEFA0022234BCDE90C0184
:1049300001F0B4F8804600222D4B01F0AFF8044698
:1049400000222C4B01F0AEFA824600F0C1FF1B4959
:104950008860886801F0C4FC06464FF03332264B6D
:1049600000F0E8FF044600F0B3FF1449886088684F
:1049700001F0B6FC04460022204B01F057FA02D2A7
:1049800000200E4988601E480078012807D0FDF7F6
:1049900049F80A2190FBF1F000B21A4908801A4840
:1049A000007818B900F0A4FBFCF7CCFE0FB0BDE80E
:1049B000F08F000066660A400000B0404801002009
:1049C000C7BAB88D06F0863FAC8BDB68006FD93F65
:1049D0006744696FF085F83F3B014D840D4FDB3F25
:1049E0009D8026C286A7B73FF2D24D621058D13FB4
:1049F00000002440004059403333D33F0000F83FCB
:104A00003A0000204C0000206000002010B5134840
:104A1000006840F0010011490860084640681049EC
:104A200008400E494860084600680E4908400B4996
:104A300008600846006820F4802008600846406846
:104A400020F4FE0048604FF41F008860FFF730FB41
:104A50004FF000600449086010BD000000100240E3
:104A60000000FFF8FFFFF6FE08ED00E010B50121A1
:104A7000880700F032F900283BD00121880700F0B8
:104A80001DF91C48007898B11B488088032190FBD1
:104A9000F1F201FB120030B118480068C043184918
:104AA000C1F8B40104E000201449086011490870FD
:104AB00014480078A8B10120134908700E490889EC
:104AC00000EBD0714910A0EB410131B90B480068EF
:104AD000C0430B49C1F8B4010BE00020074908604E
:104AE00007E00948007820B1002004490860064921
:104AF000087010BD360000202C010020B4012242B5
:104B00000000224237000020390000201FB501219B
:104B10000846FFF795F80420ADF8080043F63F007B
:104B2000ADF804000020ADF80A00ADF8060001A9B8
:104B30000D4800F0EDF801221146900700F0DEF874
:104B40001C208DF8000003208DF801008DF8020074
:104B500001208DF803006846FEF728FD0121880733
:104B600000F0AFF81FBD00000004004010B50121A7
:104B70002C4800F0B2F8002852D00121294800F05A
:104B80009DF80120284908700846B0F80100401C33
:104B900080B2A1F801000A2808DB0020A1F801007A
:104BA0000120C87008468088401C88801E48808884
:104BB000032190FBF1F201FB120020B901201A49F8
:104BC0008871FDF7E9FF184880880A2808DB002073
:104BD000154988800120C87108460089401C088159
:104BE000114800893C281BDB00200F490881012067
:104BF00088720846B0F80B00401CA1F80B0008466C
:104C0000B0F80B0009490988884209DD00200649EF
:104C1000A1F80B0001200649087000200549086032
:104C200010BD0000000400402C01002052000020B4
:104C300038000020A00121421FB501210220FEF70B
:104C4000FFFF3120ADF8080043F63F00ADF8040047
:104C50000020ADF80A00ADF8060001A9144800F0E4
:104C600057F801221146124800F048F81D208DF82F
:104C7000000001208DF801008DF802008DF803007E
:104C80006846FEF793FC00200A490870C870C87196
:104C9000A1F801008880088188718872A1F80B0052
:104CA000054908700121024800F00BF81FBD000003
:104CB000000400402C01002038000020CA4302827A
:104CC000704721B1028842F00102028004E00288AC
:104CD0004FF6FE731A400280704730B5024600203E
:104CE00000230024158A05EA0103958905EA0104D9
:104CF00013B10CB1012000E0002030BD1AB183894E
:104D00000B43838102E083898B43838170470000DA
:104D1000002202881D4B98420ED01D4B98420BD0AA
:104D2000B0F1804F08D01B4B984205D01A4B9842E7
:104D300002D01A4B984204D14FF68F731A404B8819
:104D40001A43174B984207D0164B984204D04FF69F
:104D5000FF431A40CB881A4302808B8883850B88D7
:104D600003850A4B98420BD0094B984208D00E4B52
:104D7000984205D00D4B984202D00D4B984201D17C
:104D80000B7A03860123838270470000002C0140C8
:104D9000003401400004004000080040000C0040C6
:104DA0000010004000140040004001400044014059
:104DB0000048014008B501210820FEF751FF4FF4DB
:104DC0008050ADF8000010208DF8030003208DF80E
:104DD000020069460448FDF7D7FB4FF480510248B2
:104DE000FDF7A8FC08BD0000000C014010B540F222
:104DF00025511D4800F04AF810B31B4800F002F995
:104E0000C4B21A48008800F40040C8B917480088A6
:104E100000F4804060B10A2C03D0002013490880C0
:104E200020E01248008840F400401049088019E052
:104E30000D2C06D10D48008840F480400B490880B5
:104E400010E00A480088C0F30D0009490C540748D7
:104E50000088401C0549088008460088C72801DDF5
:104E60000020088010BD0000003801403400002000
:104E70006400002021B1828942F40052828104E062
:104E800082894DF6FF731A408281704770B50246E1
:104E9000002400230025002040F66A16B14200D10C
:104EA00000BFC1F3421501F01F03012606FA03F308
:104EB000012D02D19689334006E0022D02D1168AD7
:104EC000334001E0968A33400C12012606FA04F4BE
:104ED0001688344013B10CB1012000E0002070BDF1
:104EE000F0B50346002400260025002040F66A178E
:104EF000B94200D100BF1846C1F3421401F01F06A9
:104F0000012707FA06F5012C01D10C3004E0022C30
:104F100001D1103000E014301AB107682F43076048
:104F200002E00768AF430760F0BD00002DE9F047DD
:104F300086B005460E460024A24600BFA1460027C3
:104F4000B08900B100BF2F462C8A4CF6FF70044098
:104F5000F08804432C82AC894EF6F3100440B088EC
:104F600031890843718908430443AC81AC8A4FF608
:104F7000FF400440B0890443AC8201A8FEF790FED4
:104F80001F48874202D1DDF810A001E0DDF80CA037
:104F9000A88900F4004040B10AEBCA0000EB0A10F7
:104FA00031684900B0FBF1F807E00AEBCA0000EBFA
:104FB0000A1031688900B0FBF1F86420B8FBF0F00A
:104FC00004012009642101FB1089A88900F4004034
:104FD00040B1322000EBC900B0FBF1F000F0070057
:104FE000044308E0322000EB09106421B0FBF1F02B
:104FF00000F00F0004432C8106B0BDE8F0870000EC
:105000000038014001468888C0F30800704700BF9F
:10501000FEE7490050EAC12018BF04204A0D18BF1E
:1050200040F0010040F2FF72B2EB515F08BF40F068
:105030000200012808BF052070472DE9F041044611
:105040000D4616461F46DDF81880EA1991B2A219DE
:1050500090B24246FDF704FDEA1991B2A21B90B24C
:105060004246FDF7FDFCEA1B91B2A21990B24246FE
:10507000FDF7F6FCEA1B91B2A21B90B24246FDF787
:10508000EFFCAA1991B2E21990B24246FDF7E8FC92
:10509000AA1991B2E21B90B24246FDF7E1FCAA1BAD
:1050A00091B2E21990B24246FDF7DAFCAA1B91B226
:1050B000E21B90B24246FDF7D3FCBDE8F0813038E8
:1050C0000A2801D20120704700207047014600BF26
:1050D0007047000000200349087003490870034925
:1050E000087070474400002048000020460000205F
:1050F0002DE9F04124480078002842D12349886AEC
:105100004FF07E5101F0B2F904D200201F4981F81E
:105110003C0027E01D49C86A4FF07E5101F0A6F916
:1051200004D20120194981F83C001BE01749086BA3
:105130004FF07E5101F09AF904D20220134981F810
:105140003C000FE01149486B4FF07E5101F08EF9A1
:1051500004D203200D4981F83C0003E004200B49F0
:1051600081F83C00094991F83C0000F04CFE0646ED
:10517000074A084B00F096FE044600F0A9FB0349DD
:105180000861BDE8F08100006000002048010020B7
:10519000CDCCCCCCCCCC104010B56FF00400FFF7D8
:1051A00081F80A4800680A49B0FBF1F00949087023
:1051B0000846007800EB4001C1EBC0104FF6FF71CC
:1051C00001EAC0000449088010BD0000040000206E
:1051D00000127A002C0000202E0000200146114A07
:1051E00012884A434FF0E0235A6100229A611A461E
:1051F000126942F001021A6100BF4FF0E02210690B
:1052000000F001021AB100F48032002AF5D04FF00C
:10521000E022126922F001024FF0E0231A6100221D
:105220009A6170472E0000200146114A12784A43C5
:105230004FF0E0235A6100229A611A46126942F047
:1052400001021A6100BF4FF0E022106900F0010274
:105250001AB100F48032002AF5D04FF0E022126932
:1052600022F001024FF0E0231A6100229A61704798
:105270002C0000202DE9FF4F81B08246174698464A
:10528000DDF838B0002445464FEA4800C0F1030677
:10529000BBF1000F1FD01BE0A14608E04B462246A1
:1052A000009750460299FFF7C8FE09F10109A94588
:1052B000F4DD002E04DA042000FB0460861D06E005
:1052C000601B042101FB006000F10A066D1E641CD6
:1052D000AC42E1DD18E015E02B462246009750462F
:1052E0000299FFF7AAFE002E04DA042000FB0460F6
:1052F000861D06E0601B042101FB006000F10A0628
:105300006D1E641CAC42E7DD05B0BDE8F08F000007
:1053100010B54FF46040FEF72DFD034800680128EA
:1053200001D1FFF72FF910BD840121422DE9F05F73
:105330008048006801287DD17F480078002851D03E
:10534000012878D17D49486900F0CAFF80467C4A2F
:105350007C4B00F0EFFA04460D467849086800F0EF
:10536000BFFF064622462B4600F09AFE0CD3734937
:1053700088694FF07E5100F0DFFF04466F48816876
:10538000204601F073F805D205206F49087000200F
:10539000BDE8F09F6949486800F0A2FF80460022FE
:1053A0006A4B00F0B3FE04460D466449086800F0FD
:1053B00097FF064622462B4600F038FD0CD35F4986
:1053C000C8684FF07E5101F083F904465B4881685C
:1053D000204601F04BF904D205205B4908700020FB
:1053E000D6E77AE05549486900F07AFF0646544A04
:1053F000544B00F09FFA804689465049086800F0F7
:105400006FFF044642464B4600F04AFE1DD34B490F
:1054100091F83C0000F0F7FC06464D4A4D4B00F079
:1054200041FD0446464A4C4B00F084FA80468946CA
:10543000424901E054E04FE0886800F051FF8246A5
:1054400042464B4600F02CFE04D205203E4908702F
:1054500000209DE74148007801281AD140480068A3
:1054600000F03EFF804600224FF0804300F016FB24
:1054700004460D463149086800F032FF06462246D0
:105480002B4600F0D3FC04D205202F4908700020E1
:105490007EE732480078022803D03048007804289C
:1054A00019D12649486800F01BFF80460022274B8F
:1054B00000F02CFE04460D462049086800F010FF5D
:1054C000064622462B4600F0B1FC04D205201E49B8
:1054D000087000205CE700E000BF00BF012057E734
:1054E0001448006820BB1F4800891F490988401ADA
:1054F00005281BDD10480078012817D10F490868DE
:1055000000F0EEFE04460E4A0E4B00F0C9FD0BD231
:105510000A4988684FF07E5101F0A8F804D20220B1
:1055200009490870002033E7012031E701202FE707
:1055300001202DE7A0012142600000204801002049
:105540009A9999999999B93F3A0000200000E03F53
:10555000CDCCCCCCCCCC10409999C93F6100002077
:10556000580000202C0100203C000020FFF714FE12
:10557000FDF7BAFCFEF762FCFFF7A6F84FF41650F1
:1055800000F040F9FCF74CF8FFF7C2FEFCF7A6F874
:10559000FFF7BCFAFFF70EFC81480078012802D122
:1055A000FCF7CAFC04E07E48007808B9FCF752FB1F
:1055B00040F27110FFF712FEFCF77AFA10B10120E9
:1055C00078490870FFF70CF9FFF7B0FEFCF7CAFC4A
:1055D00040F27110FFF702FEFFF72EFB7720FFF776
:1055E000FDFDFDF7DDFA01206F490870D6E06F4838
:1055F000C079012804D100206C49C871FCF7F6FE7F
:105600006A488079012806D1002068498871FFF72F
:10561000E7F8FCF7A7FC6548C078012872D10020A4
:105620006249C87002210820FDF740FA044600F0E4
:1056300009FF5F494862486A5E4901F017F80CD2D9
:1056400001205D4908705D480078002864D1012080
:105650005B490870544908705EE05549486A5949E9
:1056600001F004F80AD20120534908705348007829
:10567000002851D10220524908704DE04C49486A37
:10568000514900F0F3FF0DD201204B4908704B48FF
:105690000078002840D10320494908700120424980
:1056A000087039E04249486A484900F0DFFF19D2E2
:1056B0000120414908704148007828B90420404938
:1056C000087001203849087041480078401CC0B279
:1056D0003F4908700F281FDD0020087001203D4958
:1056E000087019E03249486A3B4900F0BFFF0AD20E
:1056F0000120314908703148007868B905203049E7
:10570000087009E03AE02C480078012804D1FFF73E
:10571000E1FC0020284908702E48007808B30020DA
:105720002C4908702D4908600A20FFF757FD1C48D6
:105730000078012808D100201949087027491C3930
:105740000860FCF787FA07E0012015490870234933
:105750001C390860FCF7F0FBFDF76EFE01201249D2
:1057600008700F48007820B1012805D1FEF7AAF88B
:1057700003E0FDF75DFF00E000BF00BF0AE000208E
:105780001649086016A0FCF78DFB01201B49087024
:1057900000BFFEE71A4800780028F0D127E7000094
:1057A000600000203A000020360000202C0100207C
:1057B0004801002000C05A45010000204800002098
:1057C0004400002000C03C450000254500A01145D4
:1057D000460000204700002000C0E444A001214210
:1057E00054494D45204F555421506C6561736520D7
:1057F00073687574646F776E2E00000037000020A8
:105800003800002010B586B00446012144F204009F
:10581000FEF726FA4FF40070ADF8140003208DF85F
:10582000160018208DF8170005A91C48FCF7ACFEDF
:105830004FF48060ADF8140004208DF8170005A91E
:105840001648FCF7A1FE25208DF8000002208DF8F7
:10585000010001208DF802008DF803006846FDF775
:10586000A5FE01940020ADF80800ADF80A00ADF8DF
:105870000C00ADF810000C20ADF80E0001A908488E
:10588000FFF754FB012240F225510548FFF728FBA2
:1058900001210348FFF7EEFA06B010BD00080140F1
:1058A0000038014010B500290AD00878002807D038
:1058B00005487844FBF7A4F9002801D0002010BD6A
:1058C0000248784410BD00000E3F0000063F000073
:1058D00021F00042A2F16052B2F5801F01F00043B6
:1058E00028BFD2F17F6C0BD95FEA001C43EAC202E9
:1058F00042EB507018BF704728BF20F0010070477E
:10590000B2F5801FBCBF184670474FEA410C1CF52A
:10591000001F02D2084600F0A4BE70B500F06CFB78
:1059200000000089FFF7F6BF4FF00040A0F58000AF
:105930007047000010B591EA030F48BF83F00043A1
:1059400000F1EC83841A71EB030C05D2121943EBBE
:105950000C03001B61EB0C01DFF824E14FEA11544A
:10596000A4EB135C1EEA430F18BF9EEA445F73D09A
:1059700023EA0E03DCF1200E21EA045143F48013E4
:1059800032D322FA0CFE10EB0E0023FA0CFE41EB90
:105990000E01CCF1200E03FA0EFE10EB0E0051F1B9
:1059A0000001B1F5801FCCF1200E32D201EB045181
:1059B00012FA0EF2BDE8104058BF7047401C38BFC5
:1059C0005FEA420218BF7047002814BF20F00100B0
:1059D00041F100014FEA410313F5001F38BF704742
:1059E000A1F1C04100F056BB012A43EB0302ACF128
:1059F000200CDCF11F0E32BF4FF0000E23FA0CF327
:105A000010EB030041EB0451B4EB115FD0D0A1EBDC
:105A1000045101F5801149085FEA300001EB04519F
:105A20000ED350F1000038BF12FA0EFE08D1BDE8C7
:105A30001040C9E7401C38BF5FEA4202CAD1C3E741
:105A4000BDE810404FEA410313F5001F38BF70470F
:105A5000A1F1C04100F01EBB9EEA445F08D011EAEC
:105A60005E0FBDE8104004BF01F000410020704708
:105A7000BDE8104070B500F0BFFA00BF64FBBE3E49
:105A80000000E0FF491058BFC1F140415B1058BF12
:105A9000C3F140438B42EFF3008070472DE9C041D2
:105AA00030B4DFF8A0C23CEA111418BF3CEA13146A
:105AB00000F0EC8081EA03051CEA111444EAD57475
:105AC00018BF1CEA131500F0C780A4EB05044FF0C3
:105AD000004545EAC12145EAC32341EA505143EA62
